:020000040800F2
:10000000380E00200D030008215300085D49000848
:100010001D530008D12000089D5900080000000071
:100020000000000000000000000000004D02000879
:100030001322000800000000A90200083D53000838
:1000400027030008270300082703000827030008E8
:1000500027030008270300082703000827030008D8
:1000600027030008270300082703000827030008C8
:1000700027030008270300082703000827030008B8
:10008000270300082703000827030008E5200008CD
:10009000D5200008270300082703000827030008CD
:1000A0002703000827030008270300082703000888
:1000B0002703000827030008270300082703000878
:1000C0002703000827030008270300082703000868
:1000D0002703000827030008270300082703000858
:1000E00027030008270300082703000835540008E9
:1000F0002703000827030008270300082703000838
:100100002703000827030008270300082703000827
:100110002703000827030008270300082703000817
:1001200027030008152100082703000827030008FB
:10013000270300080000000000000000052100085F
:10014000F5200008270300082703000827030008FC
:100150002703000825210008270300088D590008FF
:1001600027030008270300082703000827030008C7
:10017000270300082703000800000000000000001B
:10018000270300082703000800F002F800F04FF8EA
:100190000AA090E8000C82448344AAF10107DA45E2
:1001A00001D100F044F8AFF2090EBAE80F0013F0E5
:1001B000010F18BFFB1A43F00103184740AF0000BE
:1001C00060AF0000103A24BF78C878C1FAD852074F
:1001D00024BF30C830C144BF04680C6070470000C1
:1001E0000023002400250026103A28BF78C1FBD840
:1001F000520728BF30C148BF0B60704766290AF01C
:100200000380002070471FB509F0F1FF00F0A4FC47
:1002100004000020002109F0A3F9401C60600020C8
:10022000002109F087F9E0601FBD10B510BD00F096
:10023000DBFD1146FFF7E7FF07F022FE01F07EF835
:1002400003B4FFF7F2FF03BC06F0D4F92C4B196896
:100250000868B0E8F04F80F30988BFF36F8F4FF064
:10026000000080F311887047000000000848006813
:10027000006880F308884FF0000080F3148862B6AD
:1002800061B6BFF34F8FBFF36F8F00DF00BF00BFBA
:1002900008ED00E0DFF80C00016841F47001016036
:1002A000704700BF88ED00E0EFF30980BFF36F8F68
:1002B000134B1A681EF0100F08BF20ED108A20E9BA
:1002C000F04F106009B44FF0500080F31188BFF375
:1002D0004F8FBFF36F8F09F043F84FF0000080F3AA
:1002E000118809BC19680868B0E8F04F1EF0100FBB
:1002F00008BFB0EC108A80F30988BFF36F8F704796
:1003000050000020EFF30580704700000948804747
:1003100009480047FEE7FEE7FEE7FEE7FEE7FEE7E7
:10032000FEE7FEE7FEE7FEE704480549054A064BFF
:100330007047000021540008890100083808002097
:10034000380E0020380A0020380A0020704753EA8F
:10035000020C00F069802DE9F04B4FF00006002BF5
:100360001FBFB3FA83F503FA05F424FA05F65E40DD
:1003700012BF1643B2FA82F502FA05F4C5F1200560
:100380001EBF22FA05FC44EA0C04203556EA044C50
:100390004FEA144418BF641C4FF000084FF00009E6
:1003A000904271EB030C39D3002919BFB1FA81F7E0
:1003B00001FA07F6B0FA80F700FA07F6C7F120074E
:1003C0001EBF20FA07FC46EA0C062037B6FBF4FCF9
:1003D000A7EB0507103F07F01F0BCBF120060CFA27
:1003E0000BFB2CFA06F644BFB3460026202FA4BF11
:1003F0005E464FF0000B5BEA060C08BF4FF0010BA6
:1004000019EB0B09ABFB027C48EB0608C01B06FB93
:1004100002CC0BFB03CC71EB0C01C1E70B4602468F
:1004200041464846BDE8F08B13B54FF000004FF051
:100430000001AFF30080BDE81C40704710B54C10C0
:1004400084EA530404D54042C1F1000138BF491E7B
:100450001B4204D55242C3F1000338BF5B1EFFF7B5
:1004600076FF14F0804F04D04042C1F1000138BF44
:10047000491E14F0004F04D05242C3F1000338BFAC
:100480005B1E10BD0FB4044910B503AA029800F01A
:10049000DDFA10BC5DF814FB040000202DE9F041EA
:1004A0000E460446002020622046E168884730B3AB
:1004B000252805D0D4E901219047206A401CF2E7A5
:1004C000E168204600278847050018D0A5F14100C3
:1004D000192802D820354FF40067324629462046B5
:1004E0002760FFF78BFE40B1012804D0F61D26F0EF
:1004F00007060836D8E7361DD6E72846DAE7206A29
:10050000BDE8F08140EA010310B59B070FD1042A32
:100510000DD310C808C9121F9C42F8D020BA19BACE
:10052000884201D9012010BD4FF0FF3010BD1AB133
:10053000D30703D0521C07E0002010BD10F8013B88
:1005400011F8014B1B1B07D110F8013B11F8014BAF
:100550001B1B01D1921EF1D1184610BD02F0FF0302
:1005600043EA032242EA024200F0D6BA4FF0000208
:1005700000B5134694469646203922BFA0E80C5099
:10058000A0E80C50B1F12001BFF4F7AF090728BF74
:10059000A0E80C5048BF0CC05DF804EB890028BFF0
:1005A00040F8042B08BF704748BF20F8022B11F019
:1005B000804F18BF00F8012B704710B5044610F0AB
:1005C000030F08BF11F0030F40F015804FF0013EFC
:1005D000121FC0F20E8051F8043BA3EB0E0C2CEA64
:1005E000030C1CEACE1C08BF40F8043BF0D0A1F17C
:1005F000040102F10402521E08DB11F8013B002B3A
:1006000000F8013BF7D1114600F084FA204610BDF6
:10061000704770477047704710B500F0A1FA006846
:1006200010BD10B5044600F09BFA046010BD704781
:100630002DE9FF4F0C461E464FF0FF378BB0D2E935
:100640000001DDF860800A908A46C1F30A5505B9B9
:100650003D46002108464FF00000BAF1000F00F4BB
:10066000400005DA00EB80004FF4400101EA500041
:100670004FEA9059B9F1010F00DDB9460A9850EAE6
:100680004A000ED044F61050A5F2FF3545432F1412
:10069000B8F1000F1ED07542291E1EDDC9F10002FF
:1006A0001CE0B8F1010F4FF0000001D0302103E051
:1006B000F24305E02154401CB042FBDB30460022EF
:1006C000002121540B99C1F80880C1E900200FB026
:1006D000BDE8F08FBD1B6D1CDEE74A4600DA6942BB
:1006E00006A800F007FB06AB93E8070003AB83E81E
:1006F000070050460A9901F0B6F88DE80700A0F50A
:1007000000501F3800900398002D0ADD42F21F01AF
:100710004A460844002303A90390684601F062FB9F
:1007200009E0A0F500504A461F38002303A90390B2
:10073000684601F081FB8DE807000004000C03D03F
:100740004FF0FF30410800E01046B8F1000F03D031
:100750000022009215461EE0751E05D400F004FA32
:10076000303262556D1EF9D5B3460122084302D0DE
:1007700000227F1C04E02078302801D100227F1E57
:10078000002A099784D01DE0112D07DA00F0ECF95A
:10079000303262556D1C50EA0102F5D1084302D097
:1007A0000098C8B10EE00021681E05E0235C625C81
:1007B00063542254401E491C8142F7DBAB46A81B00
:1007C000401E0990002004F80B000B98099AC0F80D
:1007D0000880C0E9002B7AE711264FF0000857E7A0
:1007E0002DE9F04F88460446D21D22F0070191B052
:1007F000D1E90001CDE90A0105F0D2F802460B98D3
:10080000C00F01D02D2007E02068810701D52B20E3
:1008100002E0202101EAC000032A099001D0072A42
:1008200005DB03464146204600F004FA0BE1207840
:10083000800601D5E06900E00620B8F1650F814629
:1008400006D0B8F1660F18D0B8F1670F70D131E05B
:100850000020B9F1110F009001DB112301E009F133
:1008600001030AAA01A90CA8FFF7E2FEDDE90C705A
:10087000002609F10105834647E001204B46009020
:100880004FF000470AAA01A90CA8FFF7D1FEDDE945
:100890000DB00C995D46002610B909F101000D1844
:1008A000B9EB050003D4C0F1FF3609F10105A5EB52
:1008B00009002BE0B9F1010F01DA4FF00109002026
:1008C000B9F1110F0090484601DD112300E0034605
:1008D0000AAA01A90CA8FFF7ABFEDDE90C704D4692
:1008E00000268346207800070AD4AB4500DA5D462F
:1008F00001A8012D04DD411911F8011C302907D090
:100900004F4502DA17F1040F04DA012082460FE0A6
:100910006D1EEEE7002F02DCED1B3E4403E0781C69
:10092000A84200DD7D1CB81B00F1010A4FF0004712
:100930002078000703D4AA4501DB4FF0FF3A0021DD
:10094000B7F1004F0DF143088DF8431024D0022079
:100950002B23002F01DA7F422D230A21021EA0F152
:10096000010000DC5FB197FBF1FC97FBF1F201FBAA
:100970001C7C17460CF1300C08F801CDEEE7A8F10D
:10098000010003702188090501D5452100E065219A
:10099000A0F1010800F8011C09980FA9A1EB0807B4
:1009A000FF1D00B10120411901EBEA70A169384433
:1009B000081A401EA0612078C00602D42046AFF37A
:1009C0000080099828B1D4E901219047206A401C91
:1009D00020622078C00622D52046AFF300801EE0BA
:1009E000002E04DBB34502DD01A8805D00E030206D
:1009F000D4E901219047206A401C2062761CAAF1AC
:100A000001005FEA000A0AD100F0A6F8C068016898
:100A1000405CD4E901219047206A401C2062281ED6
:100A2000A5F10105DCDC07E0D4E9012118F8010B90
:100A30009047206A401C2062381EA7F10107F3DCB2
:100A40002046AFF30080032011B041E6074B70B59C
:100A50000D467B4400F0DBF80446284600F0BCF964
:100A600010B14FF0FF3070BD204670BD136900001B
:100A70000FB4002300B589B00CA900910B99CB608D
:100A8000214B7B440693214B7B44079304236FF057
:100A90000042CDE901321E4A7A446B460892024672
:100AA000002009F013FC09B05DF814FB70B5064690
:100AB0004FF0FF3015460C46324686B00091CDE926
:100AC000010169460020049004A8FFF7D1FF024607
:100AD0000498211825B108B1084600E02046286096
:100AE000049800280DD0002A02DD0098884208D022
:100AF0003246081B69460094CDE9010404A8FFF7BB
:100B0000B7FF06B070BD00002F02000047020000D2
:100B1000570100004FF000020429C0F0128010F0CD
:100B2000030C3FF425ADCCF1040CBCF1020F18BF4F
:100B300000F8012BA8BF20F8022BA1EB0C01FFF756
:100B400017BD5FEAC17C24BF00F8012B00F8012B20
:100B500048BF00F8012B704700487047F407002099
:100B600000487047D407002030B5B0F10A024FEAC0
:100B7000900E71F100034EEA817EB0EB0E0061EB46
:100B800091014FEA101E4EEA017E10EB0E0041EB80
:100B900011114FEA102E4EEA016E10EB0E0041EBE0
:100BA00011214FEA104E4EEA014E10EB0E0041EBC0
:100BB0001141401841F100014FEAD00040EA417074
:100BC0004FEAD10110EB80054FEA810444EA9074AA
:100BD00044EB01046D1944EB0404521BA3414FF094
:100BE000000348BF0A3200D530BD401C41F100016E
:100BF00030BD10B5044600F01DF90068005D00F03E
:100C0000010010BD01694A1C02610878704700B5F7
:100C10008FB0CDE901310021059105497944CDE935
:100C2000031011466846FFF739FC0FB000BD000005
:100C3000E5FFFFFF2DE9F0411F460446032601684A
:100C4000072A01F4006004DB08B116A505E016A52B
:100C500003E008B115A500E015A521F01000206003
:100C6000A069C01EA0610FB1401EA0612046AFF375
:100C700000804FB1D4E9012138469047206A401CDA
:100C80002062C01C206206E0206AFAE7D4E9012154
:100C900015F8010B9047761EF8D22046AFF300807E
:100CA000BDE8F0814E414E006E616E00494E460037
:100CB000696E6600426842B1016811F8013B23B1D8
:100CC000521EC0E90012184670470121C160881EFB
:100CD000704742685AB1C368016843B983688B4260
:100CE00005D0491E521CC0E90012002070474FF089
:100CF000FF3070472DE9F047814616468AB03548E7
:100D000078440DC88DE80D0032487844801C03AC4F
:100D10000DC884E80D0041F69B300844372190FB54
:100D2000F1F290FBF1F5A5F1800501FB12041B3CEB
:100D300002D56442012000E00020DFF898A0804640
:100D40000027FA44AAF1BE0A0EE0E0070AD03246B4
:100D5000684607EB470101230AEB810101F06CF8BB
:100D60008DE8070064107F1C002CEED1194F7F44E2
:100D7000AE3F19E0E80715D007EB04100DF1180A93
:100D800090E80E008AE80E00C068F04201D1981980
:100D900008903246012306A903A801F04DF803ABE1
:100DA00083E807006D10641C002DE3D14FF00103B0
:100DB00032466946B8F1000F03A802D001F012F8DC
:100DC00001E001F039F8C9E90001C9F808200AB0CA
:100DD000BDE8F087E0A30000007B00F080007047D2
:100DE00000487047D40700207546FFF7F9FFAE466C
:100DF00005006946534620F00700854618B020B527
:100E0000FFF792FABDE820404FF000064FF00007D0
:100E10004FF000084FF0000B21F00701AC46ACE8A2
:100E2000C009ACE8C009ACE8C009ACE8C0098D460F
:100E30007047000010B5FFF78FFE001D10BD00BF0A
:100E4000218700002DE9FF4F06468BB00878FF2868
:100E500006D0491C2D2805D000244FF0000908E0D9
:100E600000200CE00124F8E709EB8903491C00EBA2
:100E700043090878FF28F7D114B1C9F10000814671
:100E8000107800252C46AA4629462D2801D02B286B
:100E900004D1521C2D2813D0002082468B46107896
:100EA000FF280FD04FF0000C0A21521CA5FB01783F
:100EB00004FB018105FB0C11C5194BEB0104EEE7A6
:100EC0000120EAE7002108464FF00000BAF1000FC8
:100ED00002D000EB80004008C0F38157012F01DDF4
:100EE0004FF0FF370E9955EA040009EB01080BD0CB
:100EF0004FF0020918F5FA7F16DA4FEACA70002F90
:100F0000706008DD012007E04FEACA70C6E900B052
:100F10000FB0BDE8F08F00203060FFF721FEC0F871
:100F200000901821084616E0B8F5FA7F18DD002F6A
:100F300002DAF748784401E0F6487844D0E9001036
:100F4000C6E9001040EACA707060FFF709FEC0F8F9
:100F50000090142108460FB0BDE8F04F09F051B9D8
:100F6000002108464FF00000B8F10001099002DAB4
:100F7000C7F1000200E03A4601DAC8F1000106A814
:100F8000FFF7B8FE06AB93E8070003AB83E8070062
:100F900044F23E005BEA04010090584604D144F25A
:100FA0001E012C465D460091210C0904014306D127
:100FB0000099240444EA15442D041039009104F0EA
:100FC0007F41014306D10099240244EA15642D02B1
:100FD0000839009104F07041014306D100992401C1
:100FE00044EA15742D01091F009104F040410143AA
:100FF00006D10099A40044EA9574AD00891E0091C1
:1010000004F00041084304D100986D196441401E6A
:1010100000904FF001033A466846B8F1000FCDE961
:10102000014503A902DD00F01CFF01E000F0EFFE26
:10103000BAF1000F04460D4601D084F000440021AF
:1010400008464FF00000099940F2FF77484010F041
:101050000C0F07D124F00040284303D0C4F30A50FA
:10106000B84212D1FFF77CFDC0F80090C4F30A50DB
:10107000B8420AD1A8487844D0E90010C6E9001067
:1010800004F000410843706042E7C6E900543FE7BE
:101090002DE9FF4F1F464FF0000A4FF0FF3845463D
:1010A00091B0D7E90146CDF83CA0FFF755FDC068E7
:1010B0000168405C1090B96912986D1C8847396AC4
:1010C000814688470028F6D1B9F1FF3F0AD0002EAB
:1010D00024F4D06411DDB9F12B0F08D0B9F12D0F34
:1010E0000BD102E0404615B013E744F48064B969BF
:1010F00012986D1C8847761E8146600504A901D5AB
:101100002D2000E02B20002E01F1010B0DF1300805
:101110008DF810003FDDB9F1690F08D0B9F1490F22
:1011200005D0B9F16E0F02D0B9F14E0F1CD13B467C
:1011300001A8009580E85002DDE912126FF002006C
:1011400009F0C8F8C11CCED10EE0B96912986D1C27
:10115000884781461398761E44F4007405600F9802
:10116000401C002E0F9016DDB9F1300FEDD0B9F113
:10117000780F02D0B9F1580F0DD10F9801280AD17C
:101180003B46CDE90054DDE91212001F029609F03A
:101190009FF8C11CA7D1109989453ED144F0800425
:1011A00006E01399681CAAF1010A44F4007408606F
:1011B000B9696D1C1298761E884730288146F0D098
:1011C0002BE01099894505D1200603D4761E44F002
:1011D000800418E0484605F006FA08B3761E0DF1C3
:1011E00023018B4544F4007408D2A9F130000BF8B8
:1011F000010B200607D5AAF1010003E0200602D466
:101200000AF101008246A00502D51399681C086006
:10121000B96912986D1C88478146002ED1DC53E0D5
:10122000002E51DDB9F1650F02D0B9F1450F4BD158
:10123000A00549D5B9696D1C1298761E24F4407436
:101240008847002E81460CDD2B2804D0B9F12D0FE4
:1012500007D144F48074B96912986D1C8847761ED2
:101260008146E00501D52D2100E02B2108F8011B66
:10127000CDF8008021E0761E0DF13901884544F457
:1012800000740CD2A9F1300010F0FF0088F80000C3
:1012900002D10099884509D908F1010806E0E00566
:1012A00001D51E4801E042F20F708246B9691298DA
:1012B0006D1C8847814613980560002E04DD484662
:1012C00005F091F90028D6D1F96912988847FF20D6
:1012D00053468BF8000088F8000000200A900B901D
:1012E00004AA0CA90AA8FFF7ADFDA00502D46FF06F
:1012F0000100F8E614F0240F12D0E0071CD1386882
:10130000DDE90A12031D3B600068C0E9001213E02A
:10131000ECA10000DEA10000A2A00000F1D8FFFFB8
:101320000AA9684605F04CF9E00705D13868009A2B
:10133000011D3960006802602846D4E610B50446F5
:10134000AFF300802046BDE81040FEF779BF0000F3
:101350004FF0013C50F8042B51F8043B9A4221D144
:10136000A2EB0C03934313EACC1317D150F8042BD0
:1013700051F8043B9A4215D1A2EB0C03934313EAB4
:10138000CC130BD150F8042B51F8043B9A4209D1ED
:10139000A2EB0C03934313EACC13DBD04FF0000015
:1013A000704700BFD01A01BAB1FA81F101F01801FB
:1013B00022FA01F0CB40C1F12001DBB2C0B2C01A69
:1013C0002CFA01F3D11A914311EAC311E6D1704707
:1013D0002DE9FF4F1F464FF03C0987B04FF0004208
:1013E000DDE9141001F10108DDF858A002EA4050CF
:1013F0000390002005908346054604460490B96991
:10140000461E08988847AAF1010A0290BAF1000F17
:101410003BDD02982E2815D0102100F016FA002886
:101420002EDB4FF0010B0599014317D0B9F1000FE6
:101430000BDB4A46C11700F0F5F905430C43A9F14F
:10144000040905E0012004900BE008B145F0010516
:1014500001200590049820B9361D02E0049800B1DF
:10146000361FB969089808F101088847BBF1000FD9
:10147000AAF1010A0290C9D00999C1F80080C5E714
:101480000298702808D0502806D0F9690898884733
:10149000BBF1000F14D04FE0002002900120BBF1FF
:1014A000000F049009D0B969089808F1010888472D
:1014B000AAF10109B9F1000F07DCF969089888471A
:1014C0006FF001000BB0BDE8F08F2B2804D02D2861
:1014D0000CD14FF0FF300490B969089808F1010869
:1014E0008847A9F10109B9F1000FE6DD411CE4D0FC
:1014F0000A2100F0AAF90028DFDB029908F10108AF
:1015000001EB810100EB41000290B969089888471E
:101510000A2100F09AF9099AA9F10109B9F1000F1D
:10152000C2F8008001DD0028E7DAF96908988847E9
:101530000499029800FB016655EA040004D004F007
:101540004041090002D006E0039898E0A40044EA74
:101550009574AD00B61E04F00041080002D16D196B
:101560006441761E159810F0240F03D04FF00B093C
:101570005C4803E04FF028096FF07D008246564535
:1015800007DAAAEB06018944B9F1410F01DD4FF0FA
:10159000410901200021A9F1010200F043F90246AE
:1015A00028400B462140084301D0012100E00021E2
:1015B000501E029143F1FF3128402140084301D0E1
:1015C000012000E000200299834651EA0B014FD030
:1015D000002108464FF00000039900F4400039B1A3
:1015E00000EB80004FF4400100EBD07001EA600096
:1015F0008015012802DD4FF0FF3000E013D0401CC1
:1016000036D0029860B3BBF1000F0CD14A460120DE
:10161000002100F007F928402140084301D00120B3
:1016200000E00020E0B101204A46002100F0FAF875
:10163000034640190A4661412D1A8C4111D3B9F174
:10164000400F09DD159810F0240F02D0AAF13406DE
:1016500003E0AAF1170600E0761C00254FF00044D5
:1016600006E05B1E42F1FF3220EA030521EA020494
:10167000CAF10100B04206DA1B4903980843019001
:10168000002000900EE0039AC4F3D321E80A0A4335
:10169000164940EA44500A433146CDE90002684603
:1016A00004F097FF159810F0240F0BD01598C00781
:1016B00015D13868DDE90012031D3B600068C0E900
:1016C00000120CE002A8694604F07AFF1598C007E2
:1016D00005D13868029A011D3960006802604046F1
:1016E000F0E6000002FCFFFF0000F07F0000F03F8A
:1016F0002DE9FF4F92461D4685B04FF00041DDE9D0
:10170000124BDDE914727F1E01EA4B50414940F053
:10171000FF4940EA0108002122F0200049280491F5
:1017200002D04E2828D04CE03BA0012607C88DE807
:101730000700A9690698641C88477F1E014606D4E5
:101740001DF8060018B121F0200181420BD0E96993
:1017500006988847032E34D0082E32D06FF001004F
:1017600009B0BDE8F08F761C032E01D0082EE0D121
:10177000601CCAF80000DCE7A9690698641C884769
:101780007F1E2AD420F02000412826D1A96906987E
:10179000641C88477F1E20D420F020004E281CD1D6
:1017A000A9690698641C88477F1E48F4002849F4FC
:1017B0008009CAF8004001D4282806D0E9690698B3
:1017C00088475FEACB7012D022E0A9690698641CB2
:1017D00088477F1E01D4002803DAE9690698884704
:1017E000BCE72928F1D1641CCAF80040E9E71BF0E6
:1017F000240F07D028680499031D2B600068C0E9F6
:10180000001805E02868021D2A600068C0F80090F2
:101810002046A5E70000F07F494E46494E495459FD
:1018200000000000B2F120030AD5C2F1200301FA42
:1018300002F120FA03F300FA02F041EA03017047D3
:1018400000FA03F14FF0000070473A2800D2303818
:1018500020F02002412A01D3A2F13700884201D3AF
:101860004FF0FF3070475FEA400C08BF91F0000F67
:101870004FEA8C234FEAC12243EA51514FEA1C50F0
:1018800018BF00F5F0404FEA300018BF41F00041AA
:101890005FEA6C5C00F02980BCF1FF3F08BF40F0BC
:1018A00080407047130C06BF12044FF0100C4FF02D
:1018B000000C130E04BF12020CF1080C130F04BF2E
:1018C00012010CF1040C930F04BF92000CF1020CF6
:1018D000D30F04BF52000CF1010C11464FF000026F
:1018E000A0F11F00A0EB0C00704711F0004F08BFE3
:1018F000704731F000413FF4D5AF0B0C06BF09042F
:101900004FF0100C4FF0000C0B0E04BF09020CF14D
:10191000080C0B0F04BF09010CF1040C8B0F04BF62
:1019200089000CF1020CCB0F04BF49000CF1010C33
:10193000CCF12003A0EB0C0022FA03F302FA0CF224
:1019400041EA030100F10100704720F07F4C80EA7A
:10195000030023F07F47ACEB070303F57C5300F053
:10196000004003F1FF032DE980494FEA154B09B40C
:101970004FEA144325EA0B4E24EA03480FF20426EB
:1019800006EB132749083E785FEA320203FB06673D
:10199000C7F5000707FB06F64FEA54374FEAD6466D
:1019A00006F1020607FB066CCCF1005C4FEA1C470F
:1019B0002CEA074C07FB06F40CFB06F504EB154676
:1019C0004FEA961634BF00204FF000404FEAD1375F
:1019D00006FB07FC4FEA1C4C0CFB0BF7D21B03FB6E
:1019E0000CF761EB07010CFB0EF7B0EB074072EB55
:1019F00017420CFB08F734BFA2EB0742B2EB0742D9
:101A000061EB17414FEA0C444FEA910706FB07FCD4
:101A10004FEA1C4C0CFB0BF7B0EBC74072EB573294
:101A200003FB0CF734BFA2EBC742B2EBC74261EB3A
:101A300057310CFB0EF7B0EBC70072EB57720CFB83
:101A400008F734BFA2EBC702B2EBC70261EB5771D4
:101A5000039F4FEA816141EA921104EBCC044FEA03
:101A6000D1374FEA826206FB07FC42EA90124FEA46
:101A700080604FEA1C4C0CFB0BF7D21B03FB0CF7EE
:101A800061EB07010CFB0EF7B0EB074072EB17425E
:101A90000CFB08F734BFA2EB0742B2EB074261EB45
:101AA00017414FEA8C554FEA910704EB9C2406FB43
:101AB00007FC4FEA1C4C0CFB0BF7B0EBC74072EB7A
:101AC000573203FB0CF734BFA2EBC742B2EBC7425D
:101AD00061EB57310CFB0EF7B0EBC70072EB57729E
:101AE0000CFB08F734BFA2EBC702B2EBC70261EBF5
:101AF000577115EB4C254FEA816141EA92114FEA8B
:101B000082624FEAD13742EA901206FB07FC44F1A9
:101B100000044FEA80604FEA1C4C0CFB0BF7D21B11
:101B200003FB0CF761EB07010CFB0EF7B0EB074072
:101B300072EB17420CFB08F734BFA2EB0742B2EB83
:101B4000074261EB174115EB1C154FEA813141EA61
:101B500092414FEA823242EA90424FEA80304FEAA5
:101B60000C7644F1000448EA03434EEA0B484FF078
:101B7000000EB2EB080C71EB030724BF6246394636
:101B80004EEB0E0E4FF0000B0018524149414BEB4B
:101B90000B0BB2EB080C71EB03077BF1000B24BFBE
:101BA000624639464EEB0E0E4FF0000B00185241C4
:101BB00049414BEB0B0BB2EB080C71EB03077BF1CC
:101BC000000B24BF624639464EEB0E0E51EA020767
:101BD00018BF46F0010616EB0E7655F1000254F1DF
:101BE000000103D5BDE88901BDE80088BDE8890191
:101BF000BDE80048B619524141EB0101A3F10103D0
:101C0000704780807F7E7D7C7B7A79787776767569
:101C10007473727171706F6E6E6D6C6C6B6A6A69E1
:101C20006868676666656464636362616160605F7B
:101C30005F5E5E5D5D5C5C5B5B5A5A5959585857F4
:101C4000575656555555545453535252525151505C
:101C500050504F4F4F4E4E4D4D4D4C4C4C4B4B4BAF
:101C60004A4A4A49494948484847474747464646F5
:101C70004545454444444443434343424242424130
:101C80004141000046EA0646A3F570534FEA164666
:101C900046EA42564FEAD22242EA415210B54FEA92
:101CA000D121A3F1010300F02FF820F0004000F152
:101CB000020C00F0004701EB00501146BCF5006F2C
:101CC00040EA070000D210BDBAF1000F0AD01CB5DF
:101CD00003B44FF004004FF004014FF000000FBCBC
:101CE000BDE810404FF00001BBF1010FB9BF04483F
:101CF0004FF0FF310348002140EA070010BD00BF4C
:101D0000FFFFEF7F0000F07F002B9C4630D4770070
:101D10002BD01CB54FEA370703B44FF010004FF03B
:101D20001001BAF1000F06D0BCF1000FDCBF40F08B
:101D3000080040F008014FF000000FBCBDE8104063
:101D40000BF1010BBBF1010F08BF5FEA170722BFC0
:101D500012F1010211F101014FF0004143F10003C2
:101D600000F0004043EA00007047F9D35708D0E77D
:101D700046EA064613F1400F4FEA16461FDD13F1FF
:101D8000200FDFBF16430A46002120335B42BED03E
:101D9000C3F1200746EA064602FA07F74FEA16465D
:101DA00046EA0706C3F1200722FA03F201FA07F711
:101DB00021FA03F14FF0000342EA0702A7E746EADF
:101DC000020646EA06464FEA164646EA0106BCBF48
:101DD00046EA0646360C4FF000034FF000024FF083
:101DE000000194E72DE9804C9A46934670B491E83F
:101DF000380007C831EA400C48BF34EA430C03D529
:101E0000FFF7A3FDFFF780FFF0BCBDE8008C2DE9D4
:101E1000804C9A46934670B491E8380007C831EA7E
:101E2000400C48BF34EA430C03D5FFF78EFDFFF7A3
:101E300029FFF0BCBDE8008C2DE9804C9A46934602
:101E400070B491E8380007C810F0804F08BF13F055
:101E5000804F03D100F01AF8FFF756FFF0BCBDE841
:101E6000008C2DE9804C9A46934670B491E8380076
:101E700007C810F0804F08BF13F0804F03D100F067
:101E800005F8FFF7FFFEF0BCBDE8008C20F07F47AF
:101E900080EA030023F07F4C07EB0C03A3F57C538F
:101EA00000F00040A3F1FE0392F0000F00F0B380B9
:101EB00095F0000F00F077802DE901494FEA1140BD
:101EC0004FEA144621EA004800FB06FC24EA0647D4
:101ED00008FB06F607FB08F800FB07F718EB0648B7
:101EE0004CEB164C4FEA124B18EB07484FEA1546DD
:101EF0004CEB174022EA0B4E0BFB06FC25EA06478B
:101F00000EFB06F607FB0EFE0BFB07F71EEB064E5D
:101F10004CEB164C4FF000061EEB074E4CEB174BEC
:101F200018EB0B0840F1000018EB0E0B58EB000803
:101F300040F100008F1A4FF000013CBFC943661BFF
:101F400014BFB5EB040C00213CBFC943F61B4FEA9C
:101F500017444EEA8E0E27EA04454FEA1C4704FB5D
:101F600007622CEA074C05FB07F70CFB05F604FBA0
:101F70000CFC16EB074642EB174216EB0C4642EB05
:101F80001C421BEB060658EB0202414146EA9E0644
:101F900001D5BDE80189B619524141EB0101A3F118
:101FA0000103BDE801894FEA14454FEA114724EACD
:101FB000054621EA074C05FB07F406FB07F70CFB77
:101FC00006F105FB0CFC11EB074144EB17444FEA0B
:101FD000124711EB0C4144EB1C4422EA074C05FB71
:101FE00007F206FB07F70CFB06F605FB0CFC16EBED
:101FF000074642EB174216EB0C4642EB1C456A18AB
:1020000054F1000148BF7047B619524141EB01013C
:10201000A3F10103704795F0000F37D04FEA11424A
:102020004FEA144721EA024624EA074C02FB07F173
:1020300006FB07F70CFB06F402FB0CFC14EB074451
:1020400041EB17414FEA154714EB0C4441EB1C419F
:1020500025EA074C02FB07F506FB07F70CFB06F623
:1020600002FB0CFC16EB074645EB174516EB0C463E
:1020700045EB1C42121951F1000148BF7047B619D7
:10208000524141EB0101A3F1010370474FEA1445AE
:102090004FEA114724EA054621EA074C05FB07F100
:1020A00006FB07F70CFB06F24FF0000605FB0CFCE5
:1020B00012EB074241EB174112EB0C4251EB1C4172
:1020C00048BF7047921841EB0101A3F1010370472B
:1020D00000BFFEE710B5024800F004FA10BD000092
:1020E000E404002010B5024800F0FCF910BD000027
:1020F000E404002010B5024800F0F4F910BD00001F
:102100000C05002010B5024800F0ECF910BD0000ED
:102110000C05002010B5024800F068FD10BD00005D
:10212000CC05002010B5024800F060FD10BD000095
:102130002C0600200146087810381823B0FBF3F273
:102140000848805CC865032A05D908686FF3090050
:10215000001D886503E008686FF309008865886DD5
:102160007047000052AF0008014600208A6A8B6960
:10217000CBB932B1012A0DD0022A03D0032A10D1E3
:102180000EE000BFCB6A03F08073B3F1807F00D113
:10219000012007E0CB6AB3F1C07F00D1012001E04C
:1021A00000E000BF34E08B69B3F5005F1AD132B1B3
:1021B000012A07D0022A03D0032A11D10AE000BF66
:1021C00001200EE0CB6A03F08073B3F1807F00D171
:1021D000012006E0CB6AB3F1C07F00D1012000E00E
:1021E00000BF15E032B1012A05D0022A04D0032A2B
:1021F0000CD103E000BF00BF012008E0CB6A03F070
:102200008073B3F1807F00D1012000E000BF00BFE8
:102210007047704772B600BFFEE710B5024692F8ED
:102220002030012B01D0022B06D1106840690843F1
:1022300014686061002010BD506A40F48020506234
:102240000120F8E7F0B504460A46216894F82050CA
:10225000012D01D0022D7ED1424901F5007108689F
:1022600040F001000860086820F47C5008600868AD
:10227000566A40EA06200860107D00F01F06012023
:1022800000FA06F3C8699843C861A1F50071D069E6
:10229000C8B9D1F80C029843C1F80C02908880B2FA
:1022A000968940EA064601F51070576940F8376094
:1022B000108880B2168940EA064601F51070576909
:1022C00000EBC7004660D069012819D1D1F80C0293
:1022D0001843C1F80C02908880B2168840EA06467E
:1022E00001F51070576940F83760908980B21689FF
:1022F00040EA064601F51070576900EBC7004660DA
:10230000906928B9D1F804029843C1F8040204E0A6
:10231000D1F804021843C1F80402106928B9D1F8B1
:1023200014029843C1F8140204E0D1F814021843CF
:10233000C1F81402106A012804D1D1F81C02184314
:10234000C1F81C02D1F8000220F00100C1F800021F
:102350000020F0BDFFE7606A40F480206062012049
:10236000F7E7000000640040704770B5044694F839
:102370002050012D01D0022D7DD151B92068C068B7
:1023800000F0030080B9606A40F400106062012030
:1023900070BD2068006900F0030028B9606A40F44D
:1023A000001060620120F3E7206800F5D87000EBB0
:1023B0000110006800F004009060906840B9206847
:1023C00000F5D87000EB01100068400D106007E0C8
:1023D000206800F5D87000EB01100068C00850605C
:1023E000206800F5D87000EB0110006800F00200D2
:1023F000D060206800F5D87000EB0110406800F054
:102400000F001061206800F5D87000EB01104068E3
:1024100000F47F40000A9061206800F5D87000EB5E
:1024200001104068000C5061206800F5D87000EB86
:10243000011080681870206800F5D87000EB01105A
:10244000806800F47F40000A5870206800F5D8705A
:1024500000EB0110806800F47F00000C9870206889
:1024600000F5D87000EB01108068000ED87020686D
:1024700000F5D87000E02FE000EB0110C068187183
:10248000206800F5D87000EB0110C06800F47F40B0
:10249000000A5871206800F5D87000EB0110C06880
:1024A00000F47F00000C9871206800F5D87000EBF4
:1024B0000110C068000ED87131B92068C06840F0C2
:1024C00020002668F06005E02068006940F02000E8
:1024D0002668306100205BE7606A40F4802060621B
:1024E000012055E72DE9F05F044600252068466984
:1024F0002068D0F80490206887682068D0F80CA085
:102500002068D0F810B02068D0F8188006F00100DC
:10251000002855D007F00100C0B101202168886073
:1025200007F0020018B1204600F0EFFA0EE007F0C5
:10253000040010B145F4006508E007F0080010B190
:1025400045F4805502E0204600F0DEFA07F4807082
:10255000C8B14FF480702168886007F4007018B12A
:10256000204600F0D4FA0EE007F4806010B145F484
:10257000005508E007F4006010B145F4804502E022
:10258000204600F0C3FA07F48030C8B14FF4803021
:102590002168886007F4003018B1204600F0B9FACD
:1025A0000EE007F4802010B145F4004508E007F480
:1025B000002010B145F4803502E0204600F0A8FA72
:1025C00006F0080038B10AF0100020B145F400759B
:1025D00010202168C86006F0040040B10AF008002D
:1025E00028B108202168C860204600F01FFA06F0D4
:1025F000020038B12068C06800F0030010B1204626
:1026000000F016FA06F0400038B10BF0100020B1CF
:1026100045F4806510202168086106F0200040B173
:102620000BF0080028B1082021680861204600F05E
:1026300039FA06F0100038B12068006900F0030094
:1026400010B1204600F02FFA06F4003040B109F036
:10265000100028B1102021684860204600F024FABC
:1026600006F4803040B109F0080028B10820216844
:102670004860204600F04EFA06F4004088B309F0A6
:10268000040078B306F4807020B108F0010008B1AE
:1026900045F0010506F4007020B108F0020008B111
:1026A00045F0020506F4806020B108F0040008B18E
:1026B00045F0040506F40060A0B108F0700088B190
:1026C00008F07000402817D006DC10280BD0202816
:1026D0000CD0302819D10CE0502810D0602814D12B
:1026E00010E01DE019E045F008050FE045F0100589
:1026F0000CE045F0200509E045F0400506E045F016
:10270000800503E045F4807500E000BF00BF20684D
:10271000806920F070002168886104202168486089
:102720002DB1606A284360622046FFF71DFEBDE8B8
:10273000F09F70B504460CB9012070BD94F82000DC
:1027400010B9204600F0B0F82068006840F00100A1
:102750002168086000F0F4FC05460DE000F0F0FC94
:10276000401B0A2808D9606A40F4003060620520E6
:1027700084F820000120E0E72068406800F00100B4
:102780000028EBD02068006820F002002168086073
:1027900000F0D6FC05460DE000F0D2FC401B0A28F4
:1027A00008D9606A40F400306062052084F8200097
:1027B0000120C2E72068406800F002000028EBD149
:1027C000207E012806D12068006840F08000216842
:1027D000086005E02068006820F08000216808603B
:1027E000607E012806D12068006840F04000216822
:1027F000086005E02068006820F04000216808605B
:10280000A07E012806D12068006840F020002168E1
:10281000086005E02068006820F02000216808605A
:10282000E07E012806D12068006820F010002168B1
:10283000086005E02068006840F01000216808602A
:10284000207F012806D12068006840F00800216838
:10285000086005E02068006820F008002168086032
:10286000607F012806D12068006840F004002168DC
:10287000086005E02068006820F004002168086016
:10288000D4E902010843216908436169084361688A
:10289000491E08432168C86100206062012084F855
:1028A0002000002049E7000010B586B0044614213E
:1028B00001A8FDF75BFE5749206888424AD1564877
:1028C0000068401C544908600846006801280FD180
:1028D00000BF002000905148006840F000704F4950
:1028E00008600846006800F00070009000BF00BF5C
:1028F00000BF0020009049481038006840F00100F7
:102900004649103908600846006800F00100009050
:1029100000BF00BF4FF4C050019002200290002081
:102920000390032004900920059001A93C4800F081
:1029300007FB00220521132001F01EF8132001F0EF
:102940000BF800220521142001F016F8142001F0E4
:1029500003F85DE033492068884259D100BF002068
:1029600000902E48006840F080602C4908600846BE
:10297000006800F08060009000BF00BF264800683B
:10298000401C254908600846006801280FD100BF97
:10299000002000902148006840F000701F49086046
:1029A0000846006800F00070009000BF00BF00BF44
:1029B0000020009019481038006840F002001749C4
:1029C000103908600846006800F00200009000BF5F
:1029D00000BF4FF44050019002200290002003906D
:1029E000032004900920059001A90F4800F0A8FADF
:1029F000002205213F2000F0BFFF3F2000F0ACFF88
:102A000000220521402000F0B7FF402000F0A4FF85
:102A100006B010BD006400400000002040380240B5
:102A200000000240006800400004024070470000BF
:102A300010B58AB0044618492068884229D108ABED
:102A400001AA00211548FFF790FC0198A0F205208B
:102A5000E8B99DF821009DF8201040EA01201049B6
:102A600088809DF823009DF8221040EA012000B2E2
:102A70000B49C8809DF825009DF8241040EA0120EC
:102A800000B2074908819DF82600887200BF00BF88
:102A900000E000BF0AB010BD00640040E404002064
:102AA0008C00002070477047704770B5044694F85A
:102AB0002000012822D1022084F82000206800682C
:102AC00020F001002168086000F03AFB05460DE0A7
:102AD00000F036FB401B0A2808D9606A40F4003039
:102AE0006062052084F82000012070BD20684068E5
:102AF00000F001000028EBD16062F6E7606A40F464
:102B0000002060620120F0E770477047704770470F
:102B100070477047704770B50446A56D00F010FB14
:102B2000064694F83500022808D08020606500BF72
:102B3000002084F8340000BF012070BD20680068C8
:102B400020F01600216808602068406920F08000AD
:102B500021684861206C08B9A06C28B12068006821
:102B600020F00800216808602068006820F001005B
:102B70002168086010E000F0E3FA801B05280BD9FB
:102B800020206065032084F8350000BF002084F811
:102B9000340000BF0320D0E72068006800F0010087
:102BA0000028E8D194F85C103F208840A8600120FC
:102BB00084F8350000BF002084F8340000BF00BF57
:102BC000BBE7014691F83500022803D08020486514
:102BD00001207047052081F835000868006820F062
:102BE00001000A6810600020F3E70000F8B5044611
:102BF000002000908C4800684FF41651B0FBF1F7AC
:102C0000A56D2E6894F85C1008208840304098B17B
:102C10002068006800F0040070B12068006820F0AF
:102C200004002168086094F85C1008208840A860BF
:102C3000606D40F00100606594F85C1001208840F0
:102C4000304068B12068406900F0800040B194F8DD
:102C50005C1001208840A860606D40F00200606553
:102C600094F85C1004208840304068B12068006807
:102C700000F0020040B194F85C1004208840A86085
:102C8000606D40F00400606594F85C10102088408E
:102C9000304078B32068006800F0080050B394F822
:102CA0005C1010208840A8602068006800F4802034
:102CB00080B12068006800F4002028B9206CC8B1F9
:102CC0002046216C884715E0A06C98B12046A16C85
:102CD00088470FE02068006800F4807028B92068F9
:102CE000006820F0080021680860206C10B12046C0
:102CF000216C884794F85C102020884030400028E0
:102D000065D02068006800F0100000285FD094F8BB
:102D10005C1020208840A86094F83500052828D150
:102D20002068006820F0160021680860206840696B
:102D300020F0800021684861206C08B9A06C28B19F
:102D40002068006820F008002168086094F85C1092
:102D50003F208840A860012084F8350000BF002093
:102D600084F8340000BF206D10B12046216D8847E3
:102D7000F8BD2068006800F4802080B120680068F9
:102D800000F4002028B9606C10B12046616C8847BF
:102D90001DE0E06BD8B12046E16B884717E0206862
:102DA000006800F4807068B92068006820F01000A6
:102DB00021680860012084F8350000BF002084F8F5
:102DC000340000BFE06B10B12046E16B8847606DB6
:102DD00038B3606D00F00100F0B1052084F83500D3
:102DE0002068006820F001002168086000BF00989A
:102DF000401C0090B84200D905E02068006800F04F
:102E000001000028F3D100BF012084F8350000BF85
:102E1000002084F8340000BFE06C10B12046E16C63
:102E2000884700BFA4E700004C0000202DE9F041D6
:102E30000446002500F084F9074614B90120BDE8D6
:102E4000F081606A00B100BF022084F8350000BF45
:102E5000002084F8340000BF2068006820F00100E2
:102E6000216808600AE000F06BF9C01B052805D94D
:102E700020206065032084F83500E0E720680068C2
:102E800000F001000028EED12068056821480540C7
:102E9000D4E901010843E1680843216908436169F5
:102EA0000843A1690843E1690843216A08430543CF
:102EB000606A042803D1D4E90B0108430543206864
:102EC00005602068456925F00705606A0543606A6A
:102ED00004280DD1A06A0543E06A48B12046FFF7F7
:102EE00043F928B140206065012084F83500A6E749
:102EF000206845612046FFF71DF9064694F85C10EE
:102F00003F208840B06000206065012084F83500D3
:102F1000002094E73F8010F070B5044600F010F9EF
:102F200006462546681C10B104480078054400BFD9
:102F300000F006F9801BA842FAD370BD48000020BB
:102F4000F8B502460B460025002400200021D6E0FB
:102F5000012606FA01F51E6806EA0504AC4274D1A2
:102F60001E7906F00306012E04D01E7906F0030632
:102F7000022E13D190684F000326BE40B0434F008D
:102F8000DE68BE4030439060506801268E40B043FA
:102F90001E79C6F300168E40304350601E7906F04D
:102FA0000306032E09D0D0684F000326BE40B0436D
:102FB0004F009E68BE403043D0601E7906F0030685
:102FC000022E13D1CF0802F1200656F827004E0733
:102FD000F70E0F26BE40B0434F07FF0E1E69BE40DE
:102FE0003043CF0802F1200646F8270010684F0052
:102FF0000326BE40B0431E7906F003064F00BE40D4
:10300000304310605E6806F44036002E76D000BF74
:10301000002600963C4E366846F480463A4F3E60A5
:103020003E46366806F48046009600BF00BF374E25
:103030008F0856F827008E07370F0F26BE40B04383
:10304000334EB24202D1002624E057E0314EB24264
:1030500001D101261EE0304EB24201D1022619E014
:103060002E4EB24201D1032614E02D4EB24201D1C0
:1030700004260FE02B4EB24201D105260AE02A4E6B
:10308000B24201D1062605E0284EB24201D1072600
:1030900000E008268F073F0FBE4030431B4E8F08CD
:1030A00046F82700224E3068A0435E6806F480167A
:1030B00006B120431E4E3060361D3068A0435E6866
:1030C00006F4001606B12043194E361D3060184E26
:1030D000361F3068A0435E6806F4003606B1204310
:1030E000134E361F3060361F3068A0435E6806F40A
:1030F000803606B120430E4E083E3060491C102930
:10310000FFF426AFF8BD0000443802400838014003
:10311000000002400004024000080240000C02408F
:10312000001002400014024000180240001C02403F
:10313000083C01400AB1816101E00B0483617047E2
:1031400001480068704700004000002070B5044648
:103150000CB9012070BD94F83D0028B9002084F816
:103160003C00204600F006FB242084F83D00206847
:10317000006820F00100216808602068006840F4C1
:103180000040216808602068006820F40040216841
:10319000086000F02DFD05465C496068884206D84D
:1031A0005B48854201D2012007E0002005E0594834
:1031B000854201D2012000E00020012800D1C9E7AA
:1031C0005548B5FBF0F62068406820F03F003043DA
:1031D000216848604D496068884201D8701C07E04A
:1031E0004FF4967070434FF47A71B0FBF1F0401CCD
:1031F0002168096A21F03F010843216808624349B8
:103200006068884214D8681E61684900B0FBF1F01C
:10321000401CC0F30B00042801D204203DE0681ECE
:1032200061684900B0FBF1F0401CC0F30B0034E0D2
:10323000A06838B9681E616801EB4101B0FBF1F08C
:10324000401C0AE0681E616801EBC10202EB01113B
:10325000B0FBF1F0401C40F48040C0F30B0008B913
:1032600001201AE0A06848B9681E616801EB4101BD
:10327000B0FBF1F0401CC0F30B000CE0681E61686D
:1032800001EBC10202EB0111B0FBF1F0401CC0F3F5
:103290000B0040F4804040F400402168C9694CF6BE
:1032A000FF72914308432168C861D4E907010843CC
:1032B0002168096821F0C001084321680860D4E949
:1032C000031008432168896848F2FF32914308439C
:1032D00021688860D4E9050108432168C96821F0A4
:1032E000FF0108432168C8602068006840F00100C1
:1032F0002168086000202064202084F83D00002020
:10330000206384F83E0000BF24E70000A08601008F
:1033100080841E0000093D0040420F002DE9FC5F43
:1033200004460F4690469946DDE90CAB0E9EFFF72A
:1033300007FF054694F83D00202870D1192301228B
:10334000B0492046009501F079FC10B10220BDE89B
:10335000FC9F00BF94F83C00012801D10220F6E751
:10336000012084F83C0000BF2068006800F00100E4
:1033700028B92068006840F00100216808602068D2
:10338000006820F4006021680860222084F83D0075
:10339000402084F83E0000202064C4F824A0A4F853
:1033A0002AB0608D20859848E0624B4642463946F7
:1033B0002046CDE9006501F0F3FA08B10120C6E727
:1033C000208D88B900BF00200190206840690190DD
:1033D00020688069019000BF00BF2068006840F449
:1033E00000702168086040E0208D012818D1206815
:1033F000006820F480602168086000BF0020019010
:1034000020684069019020688069019000BF00BF7A
:103410002068006840F400702168086025E0EFE053
:10342000208D022816D12068006820F48060216871
:1034300008602068006840F400602168086000BFF0
:103440000020019020684069019020688069019007
:1034500000BF0AE000BF0020019020684069019091
:1034600020688069019000BF00BFBAE0208D03286A
:103470007ED8208D012815D12A463146204601F0FC
:1034800082FC08B1012062E720680069616A087067
:10349000606A401C6062208D401E2085608D401E49
:1034A00060859EE0208D02282AD1334600225749AC
:1034B0002046009501F0C2FB08B1012047E72068D3
:1034C000006840F400702168086020680069616A43
:1034D0000870606A401C6062208D401E2085608DEF
:1034E000401E608520680069616A0870606A401C3F
:1034F0006062208D401E2085608D401E608570E0DA
:103500003346002241492046009501F097FB08B15F
:1035100001201CE72068006820F4806021680860B2
:1035200020680069616A0870606A401C6062208DD2
:10353000401E2085608D401E608533460022334941
:103540002046009501F07AFB08B10120FFE62068D3
:10355000006840F400702168086020680069616AB2
:103560000870606A401C6062208D401E208500E06B
:1035700010E0608D401E608520680069616A0870F7
:10358000606A401C6062208D401E2085608D401E58
:10359000608526E02A463146204601F0F4FB08B15A
:1035A0000120D4E620680069616A0870606A401CE6
:1035B0006062208D401E2085608D401E60852068E1
:1035C0004069C0F3800060B120680069616A0870DA
:1035D000606A401C6062208D401E2085608D401E08
:1035E0006085208D00287FF441AF202084F83D00C5
:1035F000002084F83E0000BF84F83C0000BFA6E62F
:103600000220A4E6020010000000FFFF04000100F9
:103610002DE9FC5F04460F4690469946DDE90CAB68
:103620000E9EFFF78DFD054694F83D0020287DD1C4
:10363000192301224D492046009501F0FFFA10B1EF
:103640000220BDE8FC9F00BF94F83C00012801D196
:103650000220F6E7012084F83C0000BF20680068E3
:1036600000F0010028B92068006840F001002168DE
:1036700008602068006820F400602168086021204C
:1036800084F83D00402084F83E0000202064C4F807
:1036900024A0A4F82AB0608D20853548E0624B460E
:1036A000424639462046CDE9006501F029FA08B1C5
:1036B0000120C6E731E02A463146204601F0A3FB4F
:1036C00050B1206C042805D12068006840F40070D7
:1036D000216808600120B4E7606A00782168086109
:1036E000606A401C6062208D401E2085608D401EF7
:1036F000608520684069C0F3800070B1208D60B1A2
:10370000606A007821680861606A401C6062208DF0
:10371000401E2085608D401E6085208D0028CAD106
:103720002A463146204601F05BFA00E01CE050B129
:10373000206C042805D12068006840F400702168DE
:10374000086001207DE72068006840F4007021686F
:103750000860202084F83D00002084F83E0000BF6F
:1037600084F83C0000BF6CE702206AE7020010000A
:103770000000FFFF10B586B00446142101A8FCF735
:10378000F5FE1B49206888422FD100BF0020009021
:103790001848006840F002001649086008460068B2
:1037A00000F00200009000BF00BFC0200190122076
:1037B000029000200390032004900420059001A9AA
:1037C0000D48FFF7BDFB00BF0020009009481030F6
:1037D000006840F40010074910310860084600688E
:1037E00000F40010009000BF00BF06B010BD000044
:1037F0000054004030380240000402400348006892
:1038000003490978084401490860704740000020D6
:103810004800002010B50D48006840F400700B49C6
:1038200008600846006840F4806008600846006848
:1038300040F480700860032000F0DCF80F2000F0F6
:1038400007F800F05FF8002010BD0000003C0240C7
:103850002DE9F04188B004460027B84600BF00209B
:1038600001902348006840F0400021490860084664
:10387000006800F04000019000BF00BF02A903A84B
:1038800000F08EF9069F1FB900F0B2F9054602E07C
:1038900000F0AEF945001748B5FBF0F0A0F10108C3
:1038A00015481649086040F2E7311448C160C0F875
:1038B0000480002101618160816100F061FC0646A5
:1038C00096B90E4800F090FC06466EB92B2000F029
:1038D00043F8102C07D2002221462B2000F04CF890
:1038E0000748046000E00126304608B0BDE8F081DA
:1038F0004038024040420F00001800408C06002073
:103900004400002008B500BF002000901148006866
:1039100040F480400F4908600846006800F4804089
:10392000009000BF00BF00BF00200090081F00688B
:1039300040F08050091F08600846006800F0805081
:10394000009000BF00BF00220F21901E00F014F86D
:1039500008BD00004438024001460846002809DB43
:1039600000F01F0301229A4043099B0003F1E0236A
:10397000C3F8002100BF70472DE9F05F80460D4677
:103980001646002702F024F8074639462A463346F1
:1039900001F00700C0F1070ABAF1040F02D94FF095
:1039A000040A01E0C0F1070AD14600F1040ABAF1A5
:1039B000070F02D24FF0000A01E0A0F1030AD4463B
:1039C0004FF0010A0AFA09FAAAF1010A0AEA020A00
:1039D0000AFA0CFA4FF0010B0BFA0CFBABF1010BDE
:1039E0000BEA030B4AEA0B042146404601F0F8FFBC
:1039F000BDE8F09F00BF00F00702064B19684FF6C4
:103A0000FF031940044B0B4343EA0221014B1960A9
:103A100000BF70470CED00E00000FA0570B50446E9
:103A20000D460CB9012070BD5848006800F0070031
:103A3000A84209D255490D700846006800F00700F9
:103A4000A84201D00120EEE7207800F00200022811
:103A50001DD1207800F00400042805D14C480068EE
:103A600040F4E0504A490860207800F00800082837
:103A700005D14748006840F4604045490860444823
:103A8000006820F0F000A1680843414908602078F0
:103A900000F00100A8B36068012807D13C4808384D
:103AA0000068C0F34040B8B90120BCE76068022854
:103AB00002D06068032807D1354808380068C0F391
:103AC000406048B90120AEE7314808380068C0F3CB
:103AD000400008B90120A6E72D48006820F0030047
:103AE000616808432A490860FFF72AFB064609E097
:103AF000FFF726FB801B41F28831884202D9032060
:103B000091E707E02248006800F00C006168B0EB24
:103B1000810FEDD11D48006800F00700A84209D9C7
:103B20001A490D700846006800F00700A84201D04D
:103B3000012078E7207800F00400042807D1144819
:103B4000006820F4E050E1680843114908602078DB
:103B500000F00800082808D10D48006820F46040F3
:103B6000216940EAC1000A49086000F061F808498B
:103B70000968C1F30311074A515CC840064908604F
:103B800006480068FFF764FE00204CE7003C024056
:103B9000083802405AAF00084C00002044000020C2
:103BA0000F2202600D4A126802F0030242600B4AC3
:103BB000126802F0F0028260084A126802F4E052D1
:103BC000C260064A126802F46042D2080261044AE6
:103BD000126802F007020A607047000008380240CD
:103BE000003C024001480068704700004C00002083
:103BF00000B5FFF7F7FF04490968C1F38221034AC2
:103C0000515CC84000BD0000083802406AAF00089F
:103C100000B5FFF7E7FF04490968C1F34231034AE1
:103C2000515CC84000BD0000083802406AAF00087F
:103C30002DE9F047002400250026A146254800680C
:103C400000F00C0020B1042805D008283AD105E086
:103C5000DFF8849039E0DFF8849036E01D48001FDB
:103C6000006800F03F041B48001F006800F480005B
:103C700078B11A481749091F0968C1F38811A0FBD8
:103C800001700146224600233846FCF760FB0546DA
:103C90000EE011480F49091F0968C1F38811A0FB04
:103CA00001700146224600233846FCF750FB0546CA
:103CB0000848001F0068C0F30140401C4600B5FBE7
:103CC000F6F902E0DFF8109000BF00BF4846BDE8FB
:103CD000F0870000083802400024F40040787D019D
:103CE000F8B504460CB90120F8BD207800F00100B9
:103CF000002874D0F948006800F00C0004280DD0AA
:103D0000F648006800F00C00082813D1F348001FA3
:103D1000006800F48000B0F5800F0BD1EF48083840
:103D20000068C0F34040002859D06068002856D190
:103D30000120D9E700BF6068B0F5803F08D1E748AF
:103D40000838006840F48030E449083908601EE013
:103D50006068B0F5A02F0DD1E0480838006840F445
:103D60008020DE49083908600846006840F4803049
:103D700008600CE0D9480838006820F48030D74942
:103D8000083908600846006820F48020086000BFF9
:103D9000606890B1FFF7D4F9054606E0FFF7D0F967
:103DA000401B642801D903209EE7CC4808380068EE
:103DB000C0F340400028F1D011E0FFF7C1F90546FB
:103DC00006E0FFF7BDF9401B642801D903208BE70B
:103DD000C24808380068C0F340400028F1D120787C
:103DE00000F0020002285FD1BC48006800F00C001F
:103DF00058B1BA48006800F00C0008281CD1B74838
:103E0000001F006800F48000B0B9B44808380068AA
:103E1000C0F3400020B1E068012801D0012063E731
:103E2000AE480838006820F0F800216940EAC10077
:103E3000AA490839086037E0E06800B30120A849C2
:103E40000860FFF77DF9054606E0FFF779F9401BAA
:103E5000022801D9032047E7A04808380068C0F3CA
:103E600040000028F1D09D480838006820F0F80094
:103E7000216940EAC10099490839086014E000202E
:103E800097490860FFF75CF9054606E0FFF758F927
:103E9000401B022801D9032026E790480838006813
:103EA000C0F340000028F1D1207800F00800082875
:103EB0002CD16069A8B101208A490860FFF740F958
:103EC000054606E0FFF73CF9401B022801D9032014
:103ED0000AE782486C300068C0F340000028F1D047
:103EE00014E000207F490860FFF72AF9054606E044
:103EF000FFF726F9401B022801D90320F4E6774892
:103F00006C300068C0F340000028F1D1207800F048
:103F10000400042870D1002770483830006800F091
:103F2000805090B900BF002000906C483830006885
:103F300040F080506949383108600846006800F058
:103F40008050009000BF00BF01276748006800F460
:103F50008070B0B96448006840F4807062490860BD
:103F6000FFF7EEF8054606E0FFF7EAF8401B0228E7
:103F700001D90320B8E65C48006800F4807000288E
:103F8000F2D000BFA068012808D15448683000680A
:103F900040F001005149683108601DE0A068052823
:103FA0000DD14E486830006840F004004B4968313C
:103FB00008600846006840F0010008600CE04748CF
:103FC0006830006820F00100444968310860084604
:103FD000006820F00400086000BFA068A8B1FFF7E7
:103FE000AFF8054609E0FFF7ABF8401B41F2883116
:103FF000884202D9032077E626E038486830006816
:10400000C0F340000028EED013E0FFF799F8054612
:1040100008E0FFF795F8401B41F28831884201D94A
:10402000032061E62D4868300068C0F34000002896
:10403000EFD1012F07D129483830006820F0805097
:1040400026493831086000BFA069002845D02348C0
:10405000006800F00C0008285DD0A069022845D156
:1040600000201F490866FFF76BF8054606E0FFF7DA
:1040700067F8401B022801D9032035E617480838A5
:104080000068C0F340600028F1D1D4E9070108437B
:10409000616A40EA81110122A06AC2EB500041EA44
:1040A00000412C20005D41EA00600C49091F0860B6
:1040B00001200B490866FFF743F8054606E0FFF7C5
:1040C0003FF8401B022801D903200DE603480838B9
:1040D0000068C0F340600028F1D049E00838024091
:1040E00000004742800E47420070004000202149F6
:1040F0000866FFF725F8054606E0FFF721F8401BA4
:10410000022801D90320EFE51B480068C0F3406096
:104110000028F2D12CE0A069012800D1E4E516487E
:10412000001D0668A069012820D006F48001E0691E
:1041300081421BD106F03F01206A814216D147F629
:10414000C0703040616AB0EB811F0FD106F440317E
:104150000122A06AC2EB5000B1EB004F06D106F07D
:1041600070612C20005DB1EB006F01D00120BBE538
:104170000020B9E500004742003802407047704710
:1041800010B504460CB9012010BD94F83D0028B9C3
:10419000002084F83C00204600F025F8022084F836
:1041A0003D00211D206801F04DF9012084F84600F2
:1041B00000BF84F83E0001213F20015540200155F9
:1041C0004120015500BF00BF012084F84200432078
:1041D0000155442001554520015500BF012084F8B8
:1041E0003D000020D0E77047014691F83D000128CE
:1041F00001D001207047022081F83D000868C068A6
:1042000040F001000B68D8601A4B086898421BD038
:104210000868B0F1804F17D0174B0868984213D048
:10422000164B086898420FD0154B086898420BD07F
:10423000144B0868984207D0134B0868984203D083
:10424000124B086898420CD10868806800F0070299
:10425000062A0CD00868006840F001000B6818605E
:1042600005E00868006840F001000B681860002055
:10427000C0E70000000001400004004000080040CA
:10428000000C0040000401400040014000180040C4
:10429000704710B5044620680069C0F34000D8B1EB
:1042A0002068C068C0F34000B0B16FF00200216820
:1042B0000861012020772068806900F0030018B1B0
:1042C0002046FFF7E5FF05E0204600F0ADF8204668
:1042D00000F0ABF80020207720680069C0F3800070
:1042E000D8B12068C068C0F38000B0B16FF004009E
:1042F00021680861022020772068806900F44070FE
:1043000018B12046FFF7C4FF05E0204600F08CF806
:10431000204600F08AF80020207720680069C0F36A
:10432000C000D8B12068C068C0F3C000B0B16FF061
:10433000080021680861042020772068C06900F027
:10434000030018B12046FFF7A3FF05E0204600F068
:104350006BF8204600F069F800202077206800699B
:10436000C0F30010D8B12068C068C0F30010B0B12D
:104370006FF0100021680861082020772068C0696C
:1043800000F4407018B12046FFF782FF05E0204698
:1043900000F04AF8204600F048F800202077206816
:1043A000006900F0010058B12068C06800F0010009
:1043B00030B16FF0010021680861204600F036F846
:1043C00020680069C0F3C01058B12068C068C0F30D
:1043D000C01030B16FF08000216808612046FFF7FF
:1043E000CDFE20680069C0F3801058B12068C06815
:1043F000C0F3801030B16FF04000216808612046A2
:1044000000F020F820680069C0F3401058B120681F
:10441000C068C0F3401030B16FF02000216808611F
:104420002046FFF7ACFE10BD7047704710B504463C
:1044300003492068884201D1FFF7E0F910BD000070
:10444000001800407047F8B504460E46174694F829
:104450003E00202836D106B10FB90120F8BD00BFBB
:1044600094F83C00012801D10220F7E7012084F8EC
:104470003C0000BF20633A463146204601F030FA46
:104480000546EDB9206B012819D100BF002000902E
:1044900020680068009020684068009000BF00BF5E
:1044A00000BF00BF21680C3151E8001F41F010002F
:1044B00021680C3141E80002002AF3D100E0012517
:1044C0002846CBE70220C9E770B504460D460448EC
:1044D00002F0A0FF642202490248FFF7B4FF70BD5A
:1044E000FC00002088050020704700002DE9F84FEF
:1044F0000446206805682068C668206847694FF050
:104500000009CA4605F00F09B9F1000F0AD105F0FC
:10451000200038B106F0200020B1204601F04EF80E
:10452000BDE8F88FB9F1000F7CD007F0010018B991
:1045300006F49070002875D005F0010030B106F443
:10454000807018B1206C40F00100206405F0040078
:1045500030B107F0010018B1206C40F00200206477
:1045600005F0020030B107F0010018B1206C40F0F6
:104570000400206405F0080048B106F0200010B9DE
:1045800007F0010018B1206C40F008002064206C96
:10459000002846D005F0200028B106F0200010B118
:1045A000204601F00BF820684069C0F3801A206CA7
:1045B00000F0080010B9BAF1000F2DD0204600F02D
:1045C000B7FF2068406900F04000402820D100BFBC
:1045D00000BF2168143151E8001F21F0400021681C
:1045E000143141E80002002AF3D100BFA06B50B1A2
:1045F0007548A16B0865A06BFEF7E3FA88B1A06B64
:10460000016D88470DE02046FFF76EFF09E009E0E5
:104610002046FFF769FF04E02046FFF765FF002012
:1046200020647DE7206B012876D105F0100000287A
:1046300072D006F010000028FAD000BF00200090D1
:1046400020680068009020684068009000BF00BFAC
:104650002068406900F0400040285ED1A06B0068EF
:1046600040681FFA80F8B8F1000F54D0A08D404583
:1046700051DDA4F82E80A06BC069B0F5807F43D0D7
:1046800000BF00BF21680C3151E8001F21F4807089
:1046900021680C3141E80002002AF3D100BF00BFBD
:1046A00000BF2168143151E8001F21F0010021688A
:1046B000143141E80002002AF3D100BF00BF00BF5F
:1046C0002168143151E8001F21F0400021681431A5
:1046D00041E80002002AF3D100BF202084F83E0008
:1046E0000020206300BF00BF21680C3151E8001F8B
:1046F00021F0100021680C3141E80002002AF3D1BA
:1047000000BFA06BFEF707FAA08DE28D801A81B280
:104710002046FFF7D9FE03E740E0A08DE18D401A67
:104720001FFA80F8E08DC0B3B8F1000F35D000BF9C
:1047300000BF21680C3151E8001F21F490702168FE
:104740000C3141E80002002AF3D100BF00BF00BFD6
:104750002168143151E8001F21F001002168143153
:1047600041E80002002AF3D100BF202084F83E0077
:104770000020206300BF00BF21680C3151E8001FFA
:1047800021F0100021680C3141E80002002AF3D129
:1047900000BF41462046FFF797FEC1E605F08000C6
:1047A00030B106F0800018B1204601F0BEF8B7E63F
:1047B00005F0400030B106F0400018B1204600F08E
:1047C000EDFEADE600BFABE61D55000810B5044692
:1047D0000CB9012010BDA06900B100E000BF94F841
:1047E0003D0028B9002084F83C00204600F028F85D
:1047F000242084F83D002068C06820F4005021681F
:10480000C860204600F056FF2068006920F4904000
:10481000216808612068406920F02A002168486109
:104820002068C06840F400502168C86000202064FF
:10483000202084F83D0084F83E000020CAE70000F4
:1048400010B586B00446142101A8FBF78FFE3C4941
:104850002068884272D100BF00200090394800686B
:1048600040F02000374908600846006800F020004A
:10487000009000BF00BF00BF0020009031481438F6
:10488000006840F004002F491439086008460068A9
:1048900000F00400009000BF00BFC0200190022083
:1048A000029000200390032004900820059001A9A5
:1048B0002548FEF745FB25482549086080054860E6
:1048C000002123488160C1604FF4806101610021B3
:1048D00041618161C16101624162FEF7A7FA08B1DD
:1048E000FDF798FC00BF1A48A063846300BF174817
:1048F0007830184908604FF0206048604021154822
:1049000081600021C1604FF480610161002141613B
:104910008161C16101624162FEF788FA08B1FDF769
:1049200079FC00BF0B486063846300BF002205214F
:104930004720FFF721F84720FFF70EF806B010BD1B
:10494000001401404438024000080240286402403C
:10495000CC0500202C0600207047704700BFFEE702
:10496000014608684069C0F38020B0B16FF48060F0
:104970000A68506100200863202081F83D00002073
:1049800081F83E00086C40F00400086400BF00207D
:1049900081F83C0000BF012070470020FCE70000C8
:1049A0002DE9F84304460F4615469946DDE9088689
:1049B0002068006840F48060216808602068006812
:1049C00040F4807021680860434600224FF00111D6
:1049D0002046009600F032F960B12068006800F4CB
:1049E0008070B0F5807F02D14FF400702064032006
:1049F000BDE8F88307F0FE002168086133464246AF
:104A00003E49204600F05DF908B10120F0E700BF03
:104A10000020009020684069009020688069009024
:104A200000BF00BF32464146204600F0ECF950B1CD
:104A3000206C042805D12068006840F400702168CB
:104A400008600120D4E7B9F1010F03D1E8B2216871
:104A5000086117E0C5F30720216808613246414626
:104A6000204600F0D0F950B1206C042805D1206810
:104A7000006840F40070216808600120B8E7E8B2DF
:104A80002168086132464146204600F0BCF950B129
:104A9000206C042805D12068006840F4007021686B
:104AA00008600120A4E72068006840F48070216855
:104AB0000860434600224FF001112046009600F0A6
:104AC000BDF858B12068006800F48070B0F5807FB0
:104AD00002D14FF400702064032089E7F8B240F05F
:104AE000010021680861334642460449204600F02F
:104AF000E8F808B101207BE7002079E70200010017
:104B00002DE9F8430446884615469946DDE90867CD
:104B10002068006840F480702168086033460022F5
:104B20004FF001112046009700F088F860B120682E
:104B3000006800F48070B0F5807F02D14FF40070FF
:104B400020640320BDE8F88308F0FE0021680861B6
:104B50003B4632462149204600F0B3F808B1012017
:104B6000F0E700BF002000902068406900902068B6
:104B70008069009000BF00BF3A463146204600F0F1
:104B800042F950B1206C042805D12068006840F437
:104B90000070216808600120D4E7B9F1010F03D14A
:104BA000E8B22168086117E0C5F3072021680861B1
:104BB0003A463146204600F026F950B1206C0428D0
:104BC00005D12068006840F4007021680860012069
:104BD000B8E7E8B2216808610020B3E702000100ED
:104BE00070B504460D46164620E02046FFF7B8FE95
:104BF00008B1012070BD681CC0B1FEF7A1FA801B8E
:104C0000A84200D895B900202063202084F83D00F8
:104C1000002084F83E00206C40F02000206400BF9B
:104C2000002084F83C0000BF0120E3E720684069D1
:104C3000C0F380000028D8D00020DBE72DE9F04148
:104C400004460D4617461E46DDF818801CE0701C11
:104C5000D0B1FEF775FAA0EB0800B04200D89EB9BB
:104C600000202063202084F83D00002084F83E00CE
:104C7000206C40F02000206400BF002084F83C003D
:104C800000BF0120BDE8F081C5F3074001280AD12B
:104C900020684069A9B20840A9B2884201D1012028
:104CA0000BE0002009E020688069A9B20840A9B2A1
:104CB000884201D1012000E00020B842C7D0002086
:104CC000E0E72DE9F04104460D4616461F463DE05B
:104CD00020684069C0F38020E8B12068006840F493
:104CE0000070216808606FF48060216848610020CE
:104CF0002063202084F83D00002084F83E00206CD2
:104D000040F00400206400BF002084F83C0000BF95
:104D10000120BDE8F081701CC0B1FEF711FAC01B84
:104D2000B04200D896B900202063202084F83D00CE
:104D3000002084F83E00206C40F02000206400BF7A
:104D4000002084F83C0000BF0120E2E7C5F30740E3
:104D500001280AD120684069A9B20840A9B2884256
:104D600001D101200BE0002009E020688069A9B290
:104D70000840A9B2884201D1012000E000200028AB
:104D8000A6D00020C5E770B504460D46164632E0B1
:104D900020684069C0F30010A0B16FF010002168D6
:104DA000486100202063202084F83D00002084F822
:104DB0003E00206C206400BF002084F83C0000BF4F
:104DC000012070BDFEF7BCF9801BA84200D895B940
:104DD00000202063202084F83D00002084F83E005D
:104DE000206C40F02000206400BF002084F83C00CC
:104DF00000BF0120E5E720684069C0F3801000286B
:104E0000C6D00020DDE770B504460D46164620E00A
:104E10002046FFF7A5FD08B1012070BD681CC0B198
:104E2000FEF78EF9801BA84200D895B900202063B8
:104E3000202084F83D00002084F83E00206C40F0E3
:104E40002000206400BF002084F83C0000BF012047
:104E5000E3E720684069C0F3C0100028D8D00020E4
:104E6000DBE7000070B52DED0C8B8EB004460D46CF
:104E70001646B7EE000AF0EE409A9FED7B0AB0EEC0
:104E8000408A9FED790AF0EE408A9FED770AB0EEF6
:104E9000409A03A804A905AB06AACDE900100AA907
:104EA0000CA801F0E7FD28B14FF0FF300EB0BDECCB
:104EB0000C8B70BDBDF8100000F4807000287CD011
:104EC0009DED060AB8EEC00ADFED680A80EE201AF2
:104ED000F0EE419A9DED070AB8EEC00ADFED630AD5
:104EE00080EE201AB0EE418A9DED080AB8EEC00AA5
:104EF000DFED5E0A80EE201AF0EE418A9DED090A90
:104F0000B8EEC00ADFED590A80EE201AB0EE419AE1
:104F1000B8EE000A28EE000A20EE090AF0EE000AB8
:104F200069EEA00A00EEA80A10EE101A084605F075
:104F3000EDF841EC1C0BB0EE4C0AF0EE6C0A00F000
:104F4000DFFDB0EE40BAF0EE60BA9FED490B53ECD6
:104F5000102B51EC1B0B04F0E3FD41EC1A0B04F099
:104F600021FB2060B8EE000A28EE000A20EE080AB5
:104F7000F0EE000A68EEA00A00EEE80AF7EE000A7A
:104F800030EE200A10EE101A084605F0BFF841EC8A
:104F90001C0BB0EE000A28EE800A20EE090AF0EEA3
:104FA000000A69EEA00A00EE880A10EE101A084600
:104FB00005F0ACF841EC1D0B00E053E0B0EE4C1AEC
:104FC000F0EE6C1AB0EE4D0AF0EE6D0A01F0B4F896
:104FD000B0EE40BAF0EE60BA9FED250B53EC102B0B
:104FE00051EC1B0B04F09CFD41EC1A0B04F0DAFAB7
:104FF000286029EEA90A08EE080A08EEE80A09EE78
:10500000490A10EE101A084605F080F841EC1C0B16
:1050100029EE890A08EE280AF0EE000A20EE200A9E
:1050200010EE101A084605F071F841EC1D0BB0EEB9
:105030004C1AF0EE6C1AB0EE4D0AF0EE6D0A01F06B
:105040007BF8B0EE40BAF0EE60BA9FED090B53EC7E
:10505000102B51EC1B0B04F063FD41EC1A0B04F018
:10506000A1FA3060002021E7000000000000804E1F
:105070006666666666A64C4038B5684603F08AF8F0
:10508000044614B14FF0FF3038BD782003F088FF9C
:10509000044614B16FF00100F6E7782002F060FFDB
:1050A000044614B16FF00200EEE7642003F020FF25
:1050B000044614B16FF00300E6E701F0CFFC0446AC
:1050C00014B16FF00400DFE7164802F09DFE0546BC
:1050D00001F024FF044614B16FF00500D4E740F25C
:1050E000731001F063FB044614B16FF00600CBE7C8
:1050F000642001F043FE044614B16FF00700C3E7DB
:1051000004F02EF8044614B16FF00800BCE701204B
:1051100003F0BCFD044614B16FF00900B4E70020B1
:10512000B2E700003400002010B50D480D490860BA
:105130000720486000210B488160C1604FF40031B6
:105140000161C90041610021017641768176C17615
:1051500001774177FDF7EDFA08B1FDF75BF810BD77
:1051600000640040E404002010B50D480D490860BB
:105170000720486000210B488160C1604FF4003176
:105180000161C90041610021017641768176C176D5
:1051900001774177FDF7CDFA08B1FDF73BF810BD77
:1051A000006800400C05002008B500BF00200090FA
:1051B0000E48006840F480000C490860084600680A
:1051C00000F48000009000BF00BF002205213920BC
:1051D000FEF7D2FB3920FEF7BFFB00220521452058
:1051E000FEF7CAFB4520FEF7B7FB08BD303802408A
:1051F00000B587B0142102A8FBF7B8F900BF002062
:1052000001902748006840F00400254908600846DE
:10521000006800F00400019000BF00BF00BF002044
:1052200001900846006840F0800008600846006869
:1052300000F08000019000BF00BF00BF002001907F
:105240000846006840F0020008600846006800F068
:105250000200019000BF00BF00BF0020019008467F
:10526000006840F0010008600846006800F0010096
:10527000019000BF00BF00224FF400510948FDF724
:1052800059FF4FF400500290012003900020049039
:10529000059002A90348FDF753FE07B000BD0000CA
:1052A000303802400008024010B50B480B49086036
:1052B0000B484860002109488160C1604FF480417B
:1052C0000161002141618161C1610162FDF73EFF21
:1052D00008B1FCF79FFF10BD0054004034050020CA
:1052E000A086010010B50B480B4908604FF4E1306F
:1052F0004860002108488160C16001610C21416162
:1053000000218161C161FFF761FA08B1FCF782FFFA
:1053100010BD0000001401408805002000BFFEE71A
:1053200000BFFEE780ED000AC0ED010A80ED021A21
:10533000C0ED061A80ED082A7047000010B500BFC6
:10534000502080F31188BFF34F8FBFF36F8F00BFE2
:1053500004F04CF818B14FF080500449086000BFC9
:10536000002080F3118800BF10BD000004ED00E0B4
:1053700000B593B0302107A8FBF7F8F8142102A874
:10538000FBF7F4F800BF002001902348006840F0CC
:105390008050214908600846006800F08050019064
:1053A00000BF00BF00BF002001901C48006840F40F
:1053B00080401A4908600846006800F48040019067
:1053C00000BF00BF012007900004089002200D904C
:1053D00041050E9119210F91A821109102211191DF
:1053E0000421129107A8FEF77BFC08B1FCF712FF1D
:1053F0000F20029002200390002004904FF4805070
:1054000005900690022102A8FEF708FB08B1FCF700
:1054100001FF13B000BD00004038024000700040A2
:105420000348006840F470000149086070470000BC
:1054300088ED00E010B50248FEF72BFF10BD00001C
:105440008C06002010B50268294B98420ED0B0F1AE
:10545000804F0BD0274B984208D0274B984205D05D
:10546000264B984202D0264B984203D122F070027C
:105470004B681A431E4B984220D0B0F1804F1DD08C
:105480001C4B98421AD01C4B984217D01B4B984289
:1054900014D01B4B984211D01A4B98420ED01A4B85
:1054A00098420BD0194B984208D0194B984205D01E
:1054B000184B984202D0184B984203D122F4407204
:1054C000CB681A4322F080034C6943EA040202606D
:1054D0008B68C3620B688362054B984202D0084B0D
:1054E000984201D10B6903630123436110BD0000A1
:1054F000000001400004004000080040000C004093
:1055000000040140004001400044014000480140C7
:1055100000180040001C00400020004070B5054607
:10552000AC6B0020E085E0842046FEF7DDFF70BD17
:1055300000BF00BF02680C3252E8002F22F49071C5
:1055400002680C3242E80013002BF3D100BF00BF09
:1055500000BF0268143252E8002F22F001010268F5
:10556000143242E80013002BF3D100BF016B012974
:105570000ED100BF00BF02680C3252E8002F22F0AB
:10558000100102680C3242E80013002BF3D100BF77
:10559000202180F83E1000210163704710B50446B9
:1055A0002068C06820F040002168C860202084F88E
:1055B0003D002046FFF7D1F9002010BDF8B50446A4
:1055C00094F83E00222873D1A068B0F5805F0CD11A
:1055D000206950B90025A66A20684068C0F3080019
:1055E0003080A06A801CA06215E0A56A0026A06831
:1055F000B0F5805F03D0A06828B9206918B9206889
:105600004068287004E02068406800F07F0028703F
:10561000A06A401CA062E08D401E80B2E085002898
:1056200044D12068C06820F020002168C86020684C
:10563000C06820F480702168C8602068406920F04C
:10564000010021684861202084F83E00206B012879
:1056500026D10020206300BF00BF21680C3151E833
:10566000001F21F0100021680C3141E80002002ADF
:10567000F3D100BF2068006800F0100010280AD1A4
:1056800000BF0020009020680068009020684068FB
:10569000009000BF00BFA18D2046FEF715FF02E07D
:1056A0002046FFF759F90020F8BD01E00020FBE794
:1056B0000220F9E72DE9F84F04462068006920F43C
:1056C0004050E1680843216808612169A0680843E7
:1056D00061690843E169084300902068C06849F2A5
:1056E0000C618843009908432168C86020684069BC
:1056F00020F44070A1690843216848617649206818
:10570000884203D075492068884203D1FEF780FAA9
:10571000814602E0FEF76CFA8146E069B0F5004F81
:105720006CD102206168A0FB015003461920A9FB3F
:10573000007001462A463846FAF709FE6421B0FB9C
:10574000F1F04FEA001A02206168A0FB01510B46FC
:105750001920A9FB00712A463846FAF7F8FD83465E
:1057600002206168A0FB015003461920A9FB0071CB
:105770002A463846FAF7EBFD6421B0FBF1F000EB66
:10578000C00101EB0010ABEB8000322101EBC00047
:105790006421B0FBF1F000F0F8000AEB400A0220AF
:1057A0006168A0FB015003461920A9FB0070014667
:1057B0002A463846FAF7CBFD834602206168A0FBF3
:1057C000015003461920A9FB00712A463846FAF712
:1057D000BEFD6421B0FBF1F000EBC00101EB001055
:1057E000ABEB8000322101EBC0006421B0FBF1F093
:1057F00000F007005044216888606AE00420616876
:10580000A0FB015003461920A9FB007001462A465F
:105810003846FAF79CFD824604206168A0FB0150DF
:1058200003461920A9FB007001462A463846FAF7BC
:105830008EFD6421B0FBF1F000EBC00101EB001024
:10584000AAEB8000322101EB00106421B0FBF1F0E3
:1058500000F0F00A04206168A0FB017003461920E3
:10586000A9FB00513A462846FAF771FD6421B0FBC6
:10587000F1F00AEB001A04206168A0FB01510B460D
:105880001920A9FB00712A463846FAF760FD8346C5
:1058900004206168A0FB015003461920A9FB007099
:1058A00001462A463846FAF752FD6421B0FBF1F072
:1058B00000EBC00101EB0010ABEB8000322101EBEB
:1058C00000106421B0FBF1F000F00F00504421689B
:1058D0008860BDE8F88F000000100140001401400E
:1058E00010B5034699629A85DA8500201864222053
:1058F00083F83E0000BF002083F83C0000BF186919
:1059000028B11868C06840F480701C68E0601868AE
:10591000406940F001001C6860611868C06840F090
:1059200020001C68E060002010BD014691F83D0099
:10593000212828D18868B0F5805F0BD1086948B963
:105940000A6A1088C0F308000B685860086A801C57
:10595000086205E00B6A581C086218780B685860EA
:10596000C88C401E80B2C88458B90868C06820F04E
:1059700080000B68D8600868C06840F040000B6881
:10598000D860002070470220FCE7000010B50248F4
:10599000FEF7ACFD10BD00008805002000BFFEE74B
:1059A00003B401984100009850EAC12018BF0420B8
:1059B0004A0D18BF40F0010040F2FF72B2EB515F98
:1059C00008BF40F00200012808BF052002B0704760
:1059D00002480068C0F30220704700000CED00E0B0
:1059E00010B5002804DB0A07130E054A135406E01D
:1059F0000A07140E034A00F00F031B1FD45410BDF6
:105A000000E400E018ED00E030B52DED048B81B02E
:105A1000B0EE408AF0EE608A6A4651EC180B01F055
:105A2000B3FC00989FED329B7E300090002821DC73
:105A300053EC192B51EC180B03F0FAFF1AD000218C
:105A400040F608004FF00000044651EC180B03F03C
:105A5000A9FD08EE100A40F6080004EA00014FF024
:105A60000000B5EEC08AF1EE10FA04BF0220FAF78A
:105A7000D8FD2DE00098FF2830DB002108464FF0CC
:105A8000000000F4400553EC192B51EC180B04F006
:105A900045F98CBF002401240220FAF7C2FD9FEDD6
:105AA000168A4DB1002C0CBF4FF400004FF480005B
:105AB000A84218BF9FED118A042108464FF000004C
:105AC000002C01BFB1EE480A01B0BDEC048B30BD23
:105AD000B0EE480A01B0BDEC048B30BD51EC180BA0
